{
  "_format": "hh-sol-artifact-1",
  "contractName": "BankPool",
  "sourceName": "contracts/BankPool.sol",
  "abi": [
    {
      "inputs": [],
      "name": "deposit",
      "outputs": [
        {
          "internalType": "uint256",
          "name": "shares",
          "type": "uint256"
        }
      ],
      "stateMutability": "payable",
      "type": "function"
    },
    {
      "inputs": [
        {
          "internalType": "address",
          "name": "user",
          "type": "address"
        }
      ],
      "name": "previewWithdraw",
      "outputs": [
        {
          "internalType": "uint256",
          "name": "assets",
          "type": "uint256"
        }
      ],
      "stateMutability": "view",
      "type": "function"
    },
    {
      "inputs": [],
      "name": "totalAssets",
      "outputs": [
        {
          "internalType": "uint256",
          "name": "",
          "type": "uint256"
        }
      ],
      "stateMutability": "view",
      "type": "function"
    },
    {
      "inputs": [],
      "name": "totalShares",
      "outputs": [
        {
          "internalType": "uint256",
          "name": "",
          "type": "uint256"
        }
      ],
      "stateMutability": "view",
      "type": "function"
    },
    {
      "inputs": [
        {
          "internalType": "address",
          "name": "",
          "type": "address"
        }
      ],
      "name": "userShares",
      "outputs": [
        {
          "internalType": "uint256",
          "name": "",
          "type": "uint256"
        }
      ],
      "stateMutability": "view",
      "type": "function"
    },
    {
      "inputs": [
        {
          "internalType": "uint256",
          "name": "shares",
          "type": "uint256"
        }
      ],
      "name": "withdraw",
      "outputs": [
        {
          "internalType": "uint256",
          "name": "assets",
          "type": "uint256"
        }
      ],
      "stateMutability": "nonpayable",
      "type": "function"
    },
    {
      "stateMutability": "payable",
      "type": "receive"
    }
  ],
  "bytecode": "0x6080604052348015600f57600080fd5b5061081a8061001f6000396000f3fe6080604052600436106100595760003560e01c806301e1d1141461007c5780632e1a7d4d146100a75780633a98ef39146100e45780633b35269c1461010f578063d0e30db01461014c578063de69b3aa1461016a57610077565b36610077573460008082825461006f91906104de565b925050819055005b600080fd5b34801561008857600080fd5b506100916101a7565b60405161009e9190610521565b60405180910390f35b3480156100b357600080fd5b506100ce60048036038101906100c9919061056d565b6101ad565b6040516100db9190610521565b60405180910390f35b3480156100f057600080fd5b506100f9610321565b6040516101069190610521565b60405180910390f35b34801561011b57600080fd5b50610136600480360381019061013191906105f8565b610327565b6040516101439190610521565b60405180910390f35b61015461038f565b6040516101619190610521565b60405180910390f35b34801561017657600080fd5b50610191600480360381019061018c91906105f8565b61048d565b60405161019e9190610521565b60405180910390f35b60005481565b600081600260003373ffffffffffffffffffffffffffffffffffffffff1673ffffffffffffffffffffffffffffffffffffffff168152602001908152602001600020541015610231576040517f08c379a000000000000000000000000000000000000000000000000000000000815260040161022890610682565b60405180910390fd5b6001546000548361024291906106a2565b61024c9190610713565b905081600260003373ffffffffffffffffffffffffffffffffffffffff1673ffffffffffffffffffffffffffffffffffffffff168152602001908152602001600020600082825461029d9190610744565b9250508190555081600160008282546102b69190610744565b92505081905550806000808282546102ce9190610744565b925050819055503373ffffffffffffffffffffffffffffffffffffffff166108fc829081150290604051600060405180830381858888f1935050505015801561031b573d6000803e3d6000fd5b50919050565b60015481565b600080600260008473ffffffffffffffffffffffffffffffffffffffff1673ffffffffffffffffffffffffffffffffffffffff1681526020019081526020016000205490506001546000548261037d91906106a2565b6103879190610713565b915050919050565b60008034116103d3576040517f08c379a00000000000000000000000000000000000000000000000000000000081526004016103ca906107c4565b60405180910390fd5b6000600154036103e557349050610403565b600054600154346103f691906106a2565b6104009190610713565b90505b3460008082825461041491906104de565b92505081905550806001600082825461042d91906104de565b9250508190555080600260003373ffffffffffffffffffffffffffffffffffffffff1673ffffffffffffffffffffffffffffffffffffffff168152602001908152602001600020600082825461048391906104de565b9250508190555090565b60026020528060005260406000206000915090505481565b6000819050919050565b7f4e487b7100000000000000000000000000000000000000000000000000000000600052601160045260246000fd5b60006104e9826104a5565b91506104f4836104a5565b925082820190508082111561050c5761050b6104af565b5b92915050565b61051b816104a5565b82525050565b60006020820190506105366000830184610512565b92915050565b600080fd5b61054a816104a5565b811461055557600080fd5b50565b60008135905061056781610541565b92915050565b6000602082840312156105835761058261053c565b5b600061059184828501610558565b91505092915050565b600073ffffffffffffffffffffffffffffffffffffffff82169050919050565b60006105c58261059a565b9050919050565b6105d5816105ba565b81146105e057600080fd5b50565b6000813590506105f2816105cc565b92915050565b60006020828403121561060e5761060d61053c565b5b600061061c848285016105e3565b91505092915050565b600082825260208201905092915050565b7f496e73756666696369656e742073686172657300000000000000000000000000600082015250565b600061066c601383610625565b915061067782610636565b602082019050919050565b6000602082019050818103600083015261069b8161065f565b9050919050565b60006106ad826104a5565b91506106b8836104a5565b92508282026106c6816104a5565b915082820484148315176106dd576106dc6104af565b5b5092915050565b7f4e487b7100000000000000000000000000000000000000000000000000000000600052601260045260246000fd5b600061071e826104a5565b9150610729836104a5565b925082610739576107386106e4565b5b828204905092915050565b600061074f826104a5565b915061075a836104a5565b9250828203905081811115610772576107716104af565b5b92915050565b7f5a65726f206465706f7369740000000000000000000000000000000000000000600082015250565b60006107ae600c83610625565b91506107b982610778565b602082019050919050565b600060208201905081810360008301526107dd816107a1565b905091905056fea2646970667358221220c03d140c53f301e5daf50af2b3a3d8fc4bc8c769faea8acebcfffbaada510e7f64736f6c634300081c0033",
  "linkReferences": {},
  "deployedLinkReferences": {}
}