{
  "_format": "hh-sol-artifact-1",
  "contractName": "SimpleVaultSafe",
  "sourceName": "contracts/SimpleVaultSafe.sol",
  "abi": [
    {
      "inputs": [],
      "name": "ReentrancyGuardReentrantCall",
      "type": "error"
    },
    {
      "anonymous": false,
      "inputs": [
        {
          "indexed": true,
          "internalType": "address",
          "name": "user",
          "type": "address"
        },
        {
          "indexed": false,
          "internalType": "uint256",
          "name": "amount",
          "type": "uint256"
        }
      ],
      "name": "Deposit",
      "type": "event"
    },
    {
      "anonymous": false,
      "inputs": [
        {
          "indexed": true,
          "internalType": "address",
          "name": "user",
          "type": "address"
        },
        {
          "indexed": false,
          "internalType": "uint256",
          "name": "amount",
          "type": "uint256"
        }
      ],
      "name": "Withdraw",
      "type": "event"
    },
    {
      "inputs": [
        {
          "internalType": "address",
          "name": "user",
          "type": "address"
        }
      ],
      "name": "balanceOf",
      "outputs": [
        {
          "internalType": "uint256",
          "name": "",
          "type": "uint256"
        }
      ],
      "stateMutability": "view",
      "type": "function"
    },
    {
      "inputs": [],
      "name": "deposit",
      "outputs": [],
      "stateMutability": "payable",
      "type": "function"
    },
    {
      "inputs": [],
      "name": "vaultBalance",
      "outputs": [
        {
          "internalType": "uint256",
          "name": "",
          "type": "uint256"
        }
      ],
      "stateMutability": "view",
      "type": "function"
    },
    {
      "inputs": [
        {
          "internalType": "uint256",
          "name": "amount",
          "type": "uint256"
        }
      ],
      "name": "withdraw",
      "outputs": [],
      "stateMutability": "nonpayable",
      "type": "function"
    }
  ],
  "bytecode": "0x6080604052348015600f57600080fd5b506001600081905550610735806100276000396000f3fe60806040526004361061003f5760003560e01c80630bf6cc08146100445780632e1a7d4d1461006f57806370a0823114610098578063d0e30db0146100d5575b600080fd5b34801561005057600080fd5b506100596100df565b6040516100669190610435565b60405180910390f35b34801561007b57600080fd5b5061009660048036038101906100919190610481565b6100e7565b005b3480156100a457600080fd5b506100bf60048036038101906100ba919061050c565b6102cd565b6040516100cc9190610435565b60405180910390f35b6100dd610316565b005b600047905090565b6100ef6103cc565b80600160003373ffffffffffffffffffffffffffffffffffffffff1673ffffffffffffffffffffffffffffffffffffffff168152602001908152602001600020541015610171576040517f08c379a000000000000000000000000000000000000000000000000000000000815260040161016890610596565b60405180910390fd5b80600160003373ffffffffffffffffffffffffffffffffffffffff1673ffffffffffffffffffffffffffffffffffffffff16815260200190815260200160002060008282546101c091906105e5565b9250508190555060003373ffffffffffffffffffffffffffffffffffffffff16826040516101ed9061064a565b60006040518083038185875af1925050503d806000811461022a576040519150601f19603f3d011682016040523d82523d6000602084013e61022f565b606091505b5050905080610273576040517f08c379a000000000000000000000000000000000000000000000000000000000815260040161026a906106ab565b60405180910390fd5b3373ffffffffffffffffffffffffffffffffffffffff167f884edad9ce6fa2440d8a54cc123490eb96d2768479d49ff9c7366125a9424364836040516102b99190610435565b60405180910390a2506102ca610412565b50565b6000600160008373ffffffffffffffffffffffffffffffffffffffff1673ffffffffffffffffffffffffffffffffffffffff168152602001908152602001600020549050919050565b61031e6103cc565b34600160003373ffffffffffffffffffffffffffffffffffffffff1673ffffffffffffffffffffffffffffffffffffffff168152602001908152602001600020600082825461036d91906106cb565b925050819055503373ffffffffffffffffffffffffffffffffffffffff167fe1fffcc4923d04b559f4d29a8bfc6cda04eb5b0d3c460751c2402c5c5cc9109c346040516103ba9190610435565b60405180910390a26103ca610412565b565b600260005403610408576040517f3ee5aeb500000000000000000000000000000000000000000000000000000000815260040160405180910390fd5b6002600081905550565b6001600081905550565b6000819050919050565b61042f8161041c565b82525050565b600060208201905061044a6000830184610426565b92915050565b600080fd5b61045e8161041c565b811461046957600080fd5b50565b60008135905061047b81610455565b92915050565b60006020828403121561049757610496610450565b5b60006104a58482850161046c565b91505092915050565b600073ffffffffffffffffffffffffffffffffffffffff82169050919050565b60006104d9826104ae565b9050919050565b6104e9816104ce565b81146104f457600080fd5b50565b600081359050610506816104e0565b92915050565b60006020828403121561052257610521610450565b5b6000610530848285016104f7565b91505092915050565b600082825260208201905092915050565b7f496e73756666696369656e742062616c616e6365000000000000000000000000600082015250565b6000610580601483610539565b915061058b8261054a565b602082019050919050565b600060208201905081810360008301526105af81610573565b9050919050565b7f4e487b7100000000000000000000000000000000000000000000000000000000600052601160045260246000fd5b60006105f08261041c565b91506105fb8361041c565b9250828203905081811115610613576106126105b6565b5b92915050565b600081905092915050565b50565b6000610634600083610619565b915061063f82610624565b600082019050919050565b600061065582610627565b9150819050919050565b7f5472616e73666572206661696c65640000000000000000000000000000000000600082015250565b6000610695600f83610539565b91506106a08261065f565b602082019050919050565b600060208201905081810360008301526106c481610688565b9050919050565b60006106d68261041c565b91506106e18361041c565b92508282019050808211156106f9576106f86105b6565b5b9291505056fea2646970667358221220e02cbc96fc521421573324ec59d0bebaf730cc819d5b99adfd430d17e3194bf764736f6c634300081c0033",
  "linkReferences": {},
  "deployedLinkReferences": {}
}