{
  "_format": "hh-sol-artifact-1",
  "contractName": "SimpleVaultSafe",
  "sourceName": "contracts/SimpleVaultSafe.sol",
  "abi": [
    {
      "inputs": [],
      "name": "ReentrancyGuardReentrantCall",
      "type": "error"
    },
    {
      "anonymous": false,
      "inputs": [
        {
          "indexed": true,
          "internalType": "address",
          "name": "user",
          "type": "address"
        },
        {
          "indexed": false,
          "internalType": "uint256",
          "name": "amount",
          "type": "uint256"
        }
      ],
      "name": "Deposit",
      "type": "event"
    },
    {
      "anonymous": false,
      "inputs": [
        {
          "indexed": true,
          "internalType": "address",
          "name": "user",
          "type": "address"
        },
        {
          "indexed": false,
          "internalType": "uint256",
          "name": "amount",
          "type": "uint256"
        }
      ],
      "name": "Withdraw",
      "type": "event"
    },
    {
      "inputs": [
        {
          "internalType": "address",
          "name": "user",
          "type": "address"
        }
      ],
      "name": "balanceOf",
      "outputs": [
        {
          "internalType": "uint256",
          "name": "",
          "type": "uint256"
        }
      ],
      "stateMutability": "view",
      "type": "function"
    },
    {
      "inputs": [],
      "name": "deposit",
      "outputs": [],
      "stateMutability": "payable",
      "type": "function"
    },
    {
      "inputs": [],
      "name": "vaultBalance",
      "outputs": [
        {
          "internalType": "uint256",
          "name": "",
          "type": "uint256"
        }
      ],
      "stateMutability": "view",
      "type": "function"
    },
    {
      "inputs": [],
      "name": "version",
      "outputs": [
        {
          "internalType": "string",
          "name": "",
          "type": "string"
        }
      ],
      "stateMutability": "pure",
      "type": "function"
    },
    {
      "inputs": [
        {
          "internalType": "uint256",
          "name": "amount",
          "type": "uint256"
        }
      ],
      "name": "withdraw",
      "outputs": [],
      "stateMutability": "nonpayable",
      "type": "function"
    }
  ],
  "bytecode": "0x6080604052348015600f57600080fd5b506001600081905550610849806100276000396000f3fe60806040526004361061004a5760003560e01c80630bf6cc081461004f5780632e1a7d4d1461007a57806354fd4d50146100a357806370a08231146100ce578063d0e30db01461010b575b600080fd5b34801561005b57600080fd5b50610064610115565b60405161007191906104a8565b60405180910390f35b34801561008657600080fd5b506100a1600480360381019061009c91906104f4565b61011d565b005b3480156100af57600080fd5b506100b8610303565b6040516100c591906105b1565b60405180910390f35b3480156100da57600080fd5b506100f560048036038101906100f09190610631565b610340565b60405161010291906104a8565b60405180910390f35b610113610389565b005b600047905090565b61012561043f565b80600160003373ffffffffffffffffffffffffffffffffffffffff1673ffffffffffffffffffffffffffffffffffffffff1681526020019081526020016000205410156101a7576040517f08c379a000000000000000000000000000000000000000000000000000000000815260040161019e906106aa565b60405180910390fd5b80600160003373ffffffffffffffffffffffffffffffffffffffff1673ffffffffffffffffffffffffffffffffffffffff16815260200190815260200160002060008282546101f691906106f9565b9250508190555060003373ffffffffffffffffffffffffffffffffffffffff16826040516102239061075e565b60006040518083038185875af1925050503d8060008114610260576040519150601f19603f3d011682016040523d82523d6000602084013e610265565b606091505b50509050806102a9576040517f08c379a00000000000000000000000000000000000000000000000000000000081526004016102a0906107bf565b60405180910390fd5b3373ffffffffffffffffffffffffffffffffffffffff167f884edad9ce6fa2440d8a54cc123490eb96d2768479d49ff9c7366125a9424364836040516102ef91906104a8565b60405180910390a250610300610485565b50565b60606040518060400160405280600581526020017f312e302e30000000000000000000000000000000000000000000000000000000815250905090565b6000600160008373ffffffffffffffffffffffffffffffffffffffff1673ffffffffffffffffffffffffffffffffffffffff168152602001908152602001600020549050919050565b61039161043f565b34600160003373ffffffffffffffffffffffffffffffffffffffff1673ffffffffffffffffffffffffffffffffffffffff16815260200190815260200160002060008282546103e091906107df565b925050819055503373ffffffffffffffffffffffffffffffffffffffff167fe1fffcc4923d04b559f4d29a8bfc6cda04eb5b0d3c460751c2402c5c5cc9109c3460405161042d91906104a8565b60405180910390a261043d610485565b565b60026000540361047b576040517f3ee5aeb500000000000000000000000000000000000000000000000000000000815260040160405180910390fd5b6002600081905550565b6001600081905550565b6000819050919050565b6104a28161048f565b82525050565b60006020820190506104bd6000830184610499565b92915050565b600080fd5b6104d18161048f565b81146104dc57600080fd5b50565b6000813590506104ee816104c8565b92915050565b60006020828403121561050a576105096104c3565b5b6000610518848285016104df565b91505092915050565b600081519050919050565b600082825260208201905092915050565b60005b8381101561055b578082015181840152602081019050610540565b60008484015250505050565b6000601f19601f8301169050919050565b600061058382610521565b61058d818561052c565b935061059d81856020860161053d565b6105a681610567565b840191505092915050565b600060208201905081810360008301526105cb8184610578565b905092915050565b600073ffffffffffffffffffffffffffffffffffffffff82169050919050565b60006105fe826105d3565b9050919050565b61060e816105f3565b811461061957600080fd5b50565b60008135905061062b81610605565b92915050565b600060208284031215610647576106466104c3565b5b60006106558482850161061c565b91505092915050565b7f496e73756666696369656e742062616c616e6365000000000000000000000000600082015250565b600061069460148361052c565b915061069f8261065e565b602082019050919050565b600060208201905081810360008301526106c381610687565b9050919050565b7f4e487b7100000000000000000000000000000000000000000000000000000000600052601160045260246000fd5b60006107048261048f565b915061070f8361048f565b9250828203905081811115610727576107266106ca565b5b92915050565b600081905092915050565b50565b600061074860008361072d565b915061075382610738565b600082019050919050565b60006107698261073b565b9150819050919050565b7f5472616e73666572206661696c65640000000000000000000000000000000000600082015250565b60006107a9600f8361052c565b91506107b482610773565b602082019050919050565b600060208201905081810360008301526107d88161079c565b9050919050565b60006107ea8261048f565b91506107f58361048f565b925082820190508082111561080d5761080c6106ca565b5b9291505056fea26469706673582212208e5b331a6dc953347932557ec26ecf80dec05aba5616b4f6e0952b834b8cca2964736f6c634300081c0033",
  "linkReferences": {},
  "deployedLinkReferences": {}
}