{
  "_format": "hh-sol-artifact-1",
  "contractName": "StakingPool",
  "sourceName": "contracts/StakingPool.sol",
  "abi": [
    {
      "inputs": [
        {
          "internalType": "address",
          "name": "tokenAddress",
          "type": "address"
        }
      ],
      "stateMutability": "nonpayable",
      "type": "constructor"
    },
    {
      "anonymous": false,
      "inputs": [
        {
          "indexed": true,
          "internalType": "address",
          "name": "previousOwner",
          "type": "address"
        },
        {
          "indexed": true,
          "internalType": "address",
          "name": "newOwner",
          "type": "address"
        }
      ],
      "name": "OwnershipTransferred",
      "type": "event"
    },
    {
      "anonymous": false,
      "inputs": [
        {
          "indexed": false,
          "internalType": "uint256",
          "name": "amount",
          "type": "uint256"
        }
      ],
      "name": "RewardAdded",
      "type": "event"
    },
    {
      "anonymous": false,
      "inputs": [
        {
          "indexed": true,
          "internalType": "address",
          "name": "user",
          "type": "address"
        },
        {
          "indexed": false,
          "internalType": "uint256",
          "name": "reward",
          "type": "uint256"
        }
      ],
      "name": "RewardPaid",
      "type": "event"
    },
    {
      "anonymous": false,
      "inputs": [
        {
          "indexed": true,
          "internalType": "address",
          "name": "user",
          "type": "address"
        },
        {
          "indexed": false,
          "internalType": "uint256",
          "name": "amount",
          "type": "uint256"
        }
      ],
      "name": "Staked",
      "type": "event"
    },
    {
      "anonymous": false,
      "inputs": [
        {
          "indexed": true,
          "internalType": "address",
          "name": "user",
          "type": "address"
        },
        {
          "indexed": false,
          "internalType": "uint256",
          "name": "amount",
          "type": "uint256"
        }
      ],
      "name": "Unstaked",
      "type": "event"
    },
    {
      "inputs": [
        {
          "internalType": "address",
          "name": "",
          "type": "address"
        }
      ],
      "name": "balances",
      "outputs": [
        {
          "internalType": "uint256",
          "name": "",
          "type": "uint256"
        }
      ],
      "stateMutability": "view",
      "type": "function"
    },
    {
      "inputs": [
        {
          "internalType": "uint256",
          "name": "rewardAmount",
          "type": "uint256"
        }
      ],
      "name": "distribute",
      "outputs": [],
      "stateMutability": "nonpayable",
      "type": "function"
    },
    {
      "inputs": [
        {
          "internalType": "address",
          "name": "account",
          "type": "address"
        }
      ],
      "name": "earned",
      "outputs": [
        {
          "internalType": "uint256",
          "name": "",
          "type": "uint256"
        }
      ],
      "stateMutability": "view",
      "type": "function"
    },
    {
      "inputs": [
        {
          "internalType": "uint256",
          "name": "amount",
          "type": "uint256"
        }
      ],
      "name": "fundAndDistribute",
      "outputs": [],
      "stateMutability": "nonpayable",
      "type": "function"
    },
    {
      "inputs": [],
      "name": "harvest",
      "outputs": [],
      "stateMutability": "nonpayable",
      "type": "function"
    },
    {
      "inputs": [],
      "name": "owner",
      "outputs": [
        {
          "internalType": "address",
          "name": "",
          "type": "address"
        }
      ],
      "stateMutability": "view",
      "type": "function"
    },
    {
      "inputs": [],
      "name": "renounceOwnership",
      "outputs": [],
      "stateMutability": "nonpayable",
      "type": "function"
    },
    {
      "inputs": [],
      "name": "rewardFund",
      "outputs": [
        {
          "internalType": "uint256",
          "name": "",
          "type": "uint256"
        }
      ],
      "stateMutability": "view",
      "type": "function"
    },
    {
      "inputs": [],
      "name": "rewardPerTokenStored",
      "outputs": [
        {
          "internalType": "uint256",
          "name": "",
          "type": "uint256"
        }
      ],
      "stateMutability": "view",
      "type": "function"
    },
    {
      "inputs": [
        {
          "internalType": "address",
          "name": "",
          "type": "address"
        }
      ],
      "name": "rewards",
      "outputs": [
        {
          "internalType": "uint256",
          "name": "",
          "type": "uint256"
        }
      ],
      "stateMutability": "view",
      "type": "function"
    },
    {
      "inputs": [
        {
          "internalType": "uint256",
          "name": "amount",
          "type": "uint256"
        }
      ],
      "name": "stake",
      "outputs": [],
      "stateMutability": "nonpayable",
      "type": "function"
    },
    {
      "inputs": [],
      "name": "stakingToken",
      "outputs": [
        {
          "internalType": "contract MyTokenV2",
          "name": "",
          "type": "address"
        }
      ],
      "stateMutability": "view",
      "type": "function"
    },
    {
      "inputs": [],
      "name": "totalStaked",
      "outputs": [
        {
          "internalType": "uint256",
          "name": "",
          "type": "uint256"
        }
      ],
      "stateMutability": "view",
      "type": "function"
    },
    {
      "inputs": [
        {
          "internalType": "address",
          "name": "newOwner",
          "type": "address"
        }
      ],
      "name": "transferOwnership",
      "outputs": [],
      "stateMutability": "nonpayable",
      "type": "function"
    },
    {
      "inputs": [
        {
          "internalType": "uint256",
          "name": "amount",
          "type": "uint256"
        }
      ],
      "name": "unstake",
      "outputs": [],
      "stateMutability": "nonpayable",
      "type": "function"
    },
    {
      "inputs": [
        {
          "internalType": "address",
          "name": "",
          "type": "address"
        }
      ],
      "name": "userRewardPerTokenPaid",
      "outputs": [
        {
          "internalType": "uint256",
          "name": "",
          "type": "uint256"
        }
      ],
      "stateMutability": "view",
      "type": "function"
    }
  ],
  "bytecode": "0x608060405234801561001057600080fd5b5060405161204e38038061204e833981810160405281019061003291906101af565b6100413361008860201b60201c565b80600160006101000a81548173ffffffffffffffffffffffffffffffffffffffff021916908373ffffffffffffffffffffffffffffffffffffffff160217905550506101dc565b60008060009054906101000a900473ffffffffffffffffffffffffffffffffffffffff169050816000806101000a81548173ffffffffffffffffffffffffffffffffffffffff021916908373ffffffffffffffffffffffffffffffffffffffff1602179055508173ffffffffffffffffffffffffffffffffffffffff168173ffffffffffffffffffffffffffffffffffffffff167f8be0079c531659141344cd1fd0a4f28419497f9722a3daafe3b4186f6b6457e060405160405180910390a35050565b600080fd5b600073ffffffffffffffffffffffffffffffffffffffff82169050919050565b600061017c82610151565b9050919050565b61018c81610171565b811461019757600080fd5b50565b6000815190506101a981610183565b92915050565b6000602082840312156101c5576101c461014c565b5b60006101d38482850161019a565b91505092915050565b611e63806101eb6000396000f3fe608060405234801561001057600080fd5b50600436106100ff5760003560e01c8063817b1cd211610097578063a694fc3a11610066578063a694fc3a14610286578063df136d65146102a2578063efe22266146102c0578063f2fde38b146102de576100ff565b8063817b1cd2146101fe5780638b8763471461021c5780638da5cb5b1461024c57806391c05b0b1461026a576100ff565b80634641257d116100d35780634641257d146101b0578063570873d8146101ba578063715018a6146101d657806372f702f3146101e0576100ff565b80628cc262146101045780630700037d1461013457806327e235e3146101645780632e17de7814610194575b600080fd5b61011e6004803603810190610119919061156e565b6102fa565b60405161012b91906115b4565b60405180910390f35b61014e6004803603810190610149919061156e565b610408565b60405161015b91906115b4565b60405180910390f35b61017e6004803603810190610179919061156e565b610420565b60405161018b91906115b4565b60405180910390f35b6101ae60048036038101906101a991906115fb565b610438565b005b6101b86106a5565b005b6101d460048036038101906101cf91906115fb565b610908565b005b6101de610c7e565b005b6101e8610d18565b6040516101f59190611687565b60405180910390f35b610206610d3e565b60405161021391906115b4565b60405180910390f35b6102366004803603810190610231919061156e565b610d44565b60405161024391906115b4565b60405180910390f35b610254610d5c565b60405161026191906116b1565b60405180910390f35b610284600480360381019061027f91906115fb565b610d85565b005b6102a0600480360381019061029b91906115fb565b611077565b005b6102aa611264565b6040516102b791906115b4565b60405180910390f35b6102c861126a565b6040516102d591906115b4565b60405180910390f35b6102f860048036038101906102f3919061156e565b611274565b005b600080600660008473ffffffffffffffffffffffffffffffffffffffff1673ffffffffffffffffffffffffffffffffffffffff16815260200190815260200160002054905060008160055461034f91906116fb565b90506000670de0b6b3a764000082600360008873ffffffffffffffffffffffffffffffffffffffff1673ffffffffffffffffffffffffffffffffffffffff168152602001908152602001600020546103a7919061172f565b6103b191906117a0565b9050600760008673ffffffffffffffffffffffffffffffffffffffff1673ffffffffffffffffffffffffffffffffffffffff16815260200190815260200160002054816103fe91906117d1565b9350505050919050565b60076020528060005260406000206000915090505481565b60036020528060005260406000206000915090505481565b6104413361137d565b60008111610484576040517f08c379a000000000000000000000000000000000000000000000000000000000815260040161047b90611862565b60405180910390fd5b80600360003373ffffffffffffffffffffffffffffffffffffffff1673ffffffffffffffffffffffffffffffffffffffff168152602001908152602001600020541015610506576040517f08c379a00000000000000000000000000000000000000000000000000000000081526004016104fd906118ce565b60405180910390fd5b80600360003373ffffffffffffffffffffffffffffffffffffffff1673ffffffffffffffffffffffffffffffffffffffff168152602001908152602001600020600082825461055591906116fb565b92505081905550806002600082825461056e91906116fb565b92505081905550600160009054906101000a900473ffffffffffffffffffffffffffffffffffffffff1673ffffffffffffffffffffffffffffffffffffffff1663a9059cbb33836040518363ffffffff1660e01b81526004016105d29291906118ee565b6020604051808303816000875af11580156105f1573d6000803e3d6000fd5b505050506040513d601f19601f82011682018060405250810190610615919061194f565b610654576040517f08c379a000000000000000000000000000000000000000000000000000000000815260040161064b906119c8565b60405180910390fd5b3373ffffffffffffffffffffffffffffffffffffffff167f0f5bb82176feb1b5e747e28471aa92156a04d9f3ab9f45f28e2d704232b93f758260405161069a91906115b4565b60405180910390a250565b6106ae3361137d565b6000600760003373ffffffffffffffffffffffffffffffffffffffff1673ffffffffffffffffffffffffffffffffffffffff16815260200190815260200160002054905060008111610735576040517f08c379a000000000000000000000000000000000000000000000000000000000815260040161072c90611a34565b60405180910390fd5b80600454101561077a576040517f08c379a000000000000000000000000000000000000000000000000000000000815260040161077190611aa0565b60405180910390fd5b6000600760003373ffffffffffffffffffffffffffffffffffffffff1673ffffffffffffffffffffffffffffffffffffffff1681526020019081526020016000208190555080600460008282546107d191906116fb565b92505081905550600160009054906101000a900473ffffffffffffffffffffffffffffffffffffffff1673ffffffffffffffffffffffffffffffffffffffff1663a9059cbb33836040518363ffffffff1660e01b81526004016108359291906118ee565b6020604051808303816000875af1158015610854573d6000803e3d6000fd5b505050506040513d601f19601f82011682018060405250810190610878919061194f565b6108b7576040517f08c379a00000000000000000000000000000000000000000000000000000000081526004016108ae906119c8565b60405180910390fd5b3373ffffffffffffffffffffffffffffffffffffffff167fe2403640ba68fed3a2f88b7557551d1993f84b99bb10ff833f0cf8db0c5e0486826040516108fd91906115b4565b60405180910390a250565b60008054906101000a900473ffffffffffffffffffffffffffffffffffffffff1673ffffffffffffffffffffffffffffffffffffffff163373ffffffffffffffffffffffffffffffffffffffff1614610996576040517f08c379a000000000000000000000000000000000000000000000000000000000815260040161098d90611b0c565b60405180910390fd5b600081116109d9576040517f08c379a00000000000000000000000000000000000000000000000000000000081526004016109d090611b78565b60405180910390fd5b600060025411610a1e576040517f08c379a0000000000000000000000000000000000000000000000000000000008152600401610a1590611be4565b60405180910390fd5b600160009054906101000a900473ffffffffffffffffffffffffffffffffffffffff1673ffffffffffffffffffffffffffffffffffffffff166323b872dd3330846040518463ffffffff1660e01b8152600401610a7d93929190611c04565b6020604051808303816000875af1158015610a9c573d6000803e3d6000fd5b505050506040513d601f19601f82011682018060405250810190610ac0919061194f565b610aff576040517f08c379a0000000000000000000000000000000000000000000000000000000008152600401610af6906119c8565b60405180910390fd5b6000600160009054906101000a900473ffffffffffffffffffffffffffffffffffffffff1673ffffffffffffffffffffffffffffffffffffffff166370a08231306040518263ffffffff1660e01b8152600401610b5c91906116b1565b602060405180830381865afa158015610b79573d6000803e3d6000fd5b505050506040513d601f19601f82011682018060405250810190610b9d9190611c50565b9050600454600254610baf91906117d1565b811015610bf1576040517f08c379a0000000000000000000000000000000000000000000000000000000008152600401610be890611cc9565b60405180910390fd5b8160046000828254610c0391906117d1565b92505081905550600254670de0b6b3a764000083610c21919061172f565b610c2b91906117a0565b60056000828254610c3c91906117d1565b925050819055507fde88a922e0d3b88b24e9623efeb464919c6bf9f66857a65e2bfcf2ce87a9433d82604051610c7291906115b4565b60405180910390a15050565b60008054906101000a900473ffffffffffffffffffffffffffffffffffffffff1673ffffffffffffffffffffffffffffffffffffffff163373ffffffffffffffffffffffffffffffffffffffff1614610d0c576040517f08c379a0000000000000000000000000000000000000000000000000000000008152600401610d0390611b0c565b60405180910390fd5b610d166000611447565b565b600160009054906101000a900473ffffffffffffffffffffffffffffffffffffffff1681565b60025481565b60066020528060005260406000206000915090505481565b60008060009054906101000a900473ffffffffffffffffffffffffffffffffffffffff16905090565b60008054906101000a900473ffffffffffffffffffffffffffffffffffffffff1673ffffffffffffffffffffffffffffffffffffffff163373ffffffffffffffffffffffffffffffffffffffff1614610e13576040517f08c379a0000000000000000000000000000000000000000000000000000000008152600401610e0a90611b0c565b60405180910390fd5b60008111610e56576040517f08c379a0000000000000000000000000000000000000000000000000000000008152600401610e4d90611b78565b60405180910390fd5b600060025411610e9b576040517f08c379a0000000000000000000000000000000000000000000000000000000008152600401610e9290611be4565b60405180910390fd5b6000600160009054906101000a900473ffffffffffffffffffffffffffffffffffffffff1673ffffffffffffffffffffffffffffffffffffffff166370a08231306040518263ffffffff1660e01b8152600401610ef891906116b1565b602060405180830381865afa158015610f15573d6000803e3d6000fd5b505050506040513d601f19601f82011682018060405250810190610f399190611c50565b9050600454600254610f4b91906117d1565b811015610f8d576040517f08c379a0000000000000000000000000000000000000000000000000000000008152600401610f8490611cc9565b60405180910390fd5b81600454600254610f9e91906117d1565b610fa891906117d1565b811015610fea576040517f08c379a0000000000000000000000000000000000000000000000000000000008152600401610fe190611d35565b60405180910390fd5b8160046000828254610ffc91906117d1565b92505081905550600254670de0b6b3a76400008361101a919061172f565b61102491906117a0565b6005600082825461103591906117d1565b925050819055507fde88a922e0d3b88b24e9623efeb464919c6bf9f66857a65e2bfcf2ce87a9433d8260405161106b91906115b4565b60405180910390a15050565b6110803361137d565b600081116110c3576040517f08c379a00000000000000000000000000000000000000000000000000000000081526004016110ba90611da1565b60405180910390fd5b600160009054906101000a900473ffffffffffffffffffffffffffffffffffffffff1673ffffffffffffffffffffffffffffffffffffffff166323b872dd3330846040518463ffffffff1660e01b815260040161112293929190611c04565b6020604051808303816000875af1158015611141573d6000803e3d6000fd5b505050506040513d601f19601f82011682018060405250810190611165919061194f565b6111a4576040517f08c379a000000000000000000000000000000000000000000000000000000000815260040161119b906119c8565b60405180910390fd5b80600360003373ffffffffffffffffffffffffffffffffffffffff1673ffffffffffffffffffffffffffffffffffffffff16815260200190815260200160002060008282546111f391906117d1565b92505081905550806002600082825461120c91906117d1565b925050819055503373ffffffffffffffffffffffffffffffffffffffff167f9e71bc8eea02a63969f509818f2dafb9254532904319f9dbda79b67bd34a5f3d8260405161125991906115b4565b60405180910390a250565b60055481565b6000600454905090565b60008054906101000a900473ffffffffffffffffffffffffffffffffffffffff1673ffffffffffffffffffffffffffffffffffffffff163373ffffffffffffffffffffffffffffffffffffffff1614611302576040517f08c379a00000000000000000000000000000000000000000000000000000000081526004016112f990611b0c565b60405180910390fd5b600073ffffffffffffffffffffffffffffffffffffffff168173ffffffffffffffffffffffffffffffffffffffff1603611371576040517f08c379a000000000000000000000000000000000000000000000000000000000815260040161136890611e0d565b60405180910390fd5b61137a81611447565b50565b600073ffffffffffffffffffffffffffffffffffffffff168173ffffffffffffffffffffffffffffffffffffffff1614611444576113ba816102fa565b600760008373ffffffffffffffffffffffffffffffffffffffff1673ffffffffffffffffffffffffffffffffffffffff16815260200190815260200160002081905550600554600660008373ffffffffffffffffffffffffffffffffffffffff1673ffffffffffffffffffffffffffffffffffffffff168152602001908152602001600020819055505b50565b60008060009054906101000a900473ffffffffffffffffffffffffffffffffffffffff169050816000806101000a81548173ffffffffffffffffffffffffffffffffffffffff021916908373ffffffffffffffffffffffffffffffffffffffff1602179055508173ffffffffffffffffffffffffffffffffffffffff168173ffffffffffffffffffffffffffffffffffffffff167f8be0079c531659141344cd1fd0a4f28419497f9722a3daafe3b4186f6b6457e060405160405180910390a35050565b600080fd5b600073ffffffffffffffffffffffffffffffffffffffff82169050919050565b600061153b82611510565b9050919050565b61154b81611530565b811461155657600080fd5b50565b60008135905061156881611542565b92915050565b6000602082840312156115845761158361150b565b5b600061159284828501611559565b91505092915050565b6000819050919050565b6115ae8161159b565b82525050565b60006020820190506115c960008301846115a5565b92915050565b6115d88161159b565b81146115e357600080fd5b50565b6000813590506115f5816115cf565b92915050565b6000602082840312156116115761161061150b565b5b600061161f848285016115e6565b91505092915050565b6000819050919050565b600061164d61164861164384611510565b611628565b611510565b9050919050565b600061165f82611632565b9050919050565b600061167182611654565b9050919050565b61168181611666565b82525050565b600060208201905061169c6000830184611678565b92915050565b6116ab81611530565b82525050565b60006020820190506116c660008301846116a2565b92915050565b7f4e487b7100000000000000000000000000000000000000000000000000000000600052601160045260246000fd5b60006117068261159b565b91506117118361159b565b9250828203905081811115611729576117286116cc565b5b92915050565b600061173a8261159b565b91506117458361159b565b92508282026117538161159b565b9150828204841483151761176a576117696116cc565b5b5092915050565b7f4e487b7100000000000000000000000000000000000000000000000000000000600052601260045260246000fd5b60006117ab8261159b565b91506117b68361159b565b9250826117c6576117c5611771565b5b828204905092915050565b60006117dc8261159b565b91506117e78361159b565b92508282019050808211156117ff576117fe6116cc565b5b92915050565b600082825260208201905092915050565b7f43616e6e6f7420756e7374616b65203000000000000000000000000000000000600082015250565b600061184c601083611805565b915061185782611816565b602082019050919050565b6000602082019050818103600083015261187b8161183f565b9050919050565b7f496e73756666696369656e74207374616b65642062616c616e63650000000000600082015250565b60006118b8601b83611805565b91506118c382611882565b602082019050919050565b600060208201905081810360008301526118e7816118ab565b9050919050565b600060408201905061190360008301856116a2565b61191060208301846115a5565b9392505050565b60008115159050919050565b61192c81611917565b811461193757600080fd5b50565b60008151905061194981611923565b92915050565b6000602082840312156119655761196461150b565b5b60006119738482850161193a565b91505092915050565b7f5472616e73666572206661696c65640000000000000000000000000000000000600082015250565b60006119b2600f83611805565b91506119bd8261197c565b602082019050919050565b600060208201905081810360008301526119e1816119a5565b9050919050565b7f4e6f207265776172647320746f20686172766573740000000000000000000000600082015250565b6000611a1e601583611805565b9150611a29826119e8565b602082019050919050565b60006020820190508181036000830152611a4d81611a11565b9050919050565b7f496e73756666696369656e74207265776172642066756e640000000000000000600082015250565b6000611a8a601883611805565b9150611a9582611a54565b602082019050919050565b60006020820190508181036000830152611ab981611a7d565b9050919050565b7f4e6f74206f776e65720000000000000000000000000000000000000000000000600082015250565b6000611af6600983611805565b9150611b0182611ac0565b602082019050919050565b60006020820190508181036000830152611b2581611ae9565b9050919050565b7f526577617264206d7573742062652067726561746572207468616e2030000000600082015250565b6000611b62601d83611805565b9150611b6d82611b2c565b602082019050919050565b60006020820190508181036000830152611b9181611b55565b9050919050565b7f4e6f207374616b656420746f6b656e7300000000000000000000000000000000600082015250565b6000611bce601083611805565b9150611bd982611b98565b602082019050919050565b60006020820190508181036000830152611bfd81611bc1565b9050919050565b6000606082019050611c1960008301866116a2565b611c2660208301856116a2565b611c3360408301846115a5565b949350505050565b600081519050611c4a816115cf565b92915050565b600060208284031215611c6657611c6561150b565b5b6000611c7484828501611c3b565b91505092915050565b7f42616420706f6f6c2062616c616e636500000000000000000000000000000000600082015250565b6000611cb3601083611805565b9150611cbe82611c7d565b602082019050919050565b60006020820190508181036000830152611ce281611ca6565b9050919050565b7f496e73756666696369656e74207265776172642062616c616e63650000000000600082015250565b6000611d1f601b83611805565b9150611d2a82611ce9565b602082019050919050565b60006020820190508181036000830152611d4e81611d12565b9050919050565b7f43616e6e6f74207374616b652030000000000000000000000000000000000000600082015250565b6000611d8b600e83611805565b9150611d9682611d55565b602082019050919050565b60006020820190508181036000830152611dba81611d7e565b9050919050565b7f4e6577206f776e6572206973207a65726f206164647265737300000000000000600082015250565b6000611df7601983611805565b9150611e0282611dc1565b602082019050919050565b60006020820190508181036000830152611e2681611dea565b905091905056fea26469706673582212202b392e1d6f1cbba6150b06e8bce01e5c53b610176e90894bbbcab5e087f4e7fc64736f6c634300081c0033",
  "linkReferences": {},
  "deployedLinkReferences": {}
}