{
  "_format": "hh-sol-artifact-1",
  "contractName": "StakingPool",
  "sourceName": "contracts/StakingPool.sol",
  "abi": [
    {
      "inputs": [
        {
          "internalType": "address",
          "name": "tokenAddress",
          "type": "address"
        }
      ],
      "stateMutability": "nonpayable",
      "type": "constructor"
    },
    {
      "anonymous": false,
      "inputs": [
        {
          "indexed": true,
          "internalType": "address",
          "name": "previousOwner",
          "type": "address"
        },
        {
          "indexed": true,
          "internalType": "address",
          "name": "newOwner",
          "type": "address"
        }
      ],
      "name": "OwnershipTransferred",
      "type": "event"
    },
    {
      "anonymous": false,
      "inputs": [
        {
          "indexed": false,
          "internalType": "uint256",
          "name": "amount",
          "type": "uint256"
        }
      ],
      "name": "RewardAdded",
      "type": "event"
    },
    {
      "anonymous": false,
      "inputs": [
        {
          "indexed": true,
          "internalType": "address",
          "name": "user",
          "type": "address"
        },
        {
          "indexed": false,
          "internalType": "uint256",
          "name": "reward",
          "type": "uint256"
        }
      ],
      "name": "RewardPaid",
      "type": "event"
    },
    {
      "anonymous": false,
      "inputs": [
        {
          "indexed": true,
          "internalType": "address",
          "name": "user",
          "type": "address"
        },
        {
          "indexed": false,
          "internalType": "uint256",
          "name": "amount",
          "type": "uint256"
        }
      ],
      "name": "Staked",
      "type": "event"
    },
    {
      "anonymous": false,
      "inputs": [
        {
          "indexed": true,
          "internalType": "address",
          "name": "user",
          "type": "address"
        },
        {
          "indexed": false,
          "internalType": "uint256",
          "name": "amount",
          "type": "uint256"
        }
      ],
      "name": "Unstaked",
      "type": "event"
    },
    {
      "inputs": [
        {
          "internalType": "address",
          "name": "",
          "type": "address"
        }
      ],
      "name": "balances",
      "outputs": [
        {
          "internalType": "uint256",
          "name": "",
          "type": "uint256"
        }
      ],
      "stateMutability": "view",
      "type": "function"
    },
    {
      "inputs": [
        {
          "internalType": "uint256",
          "name": "rewardAmount",
          "type": "uint256"
        }
      ],
      "name": "distribute",
      "outputs": [],
      "stateMutability": "nonpayable",
      "type": "function"
    },
    {
      "inputs": [
        {
          "internalType": "address",
          "name": "account",
          "type": "address"
        }
      ],
      "name": "earned",
      "outputs": [
        {
          "internalType": "uint256",
          "name": "",
          "type": "uint256"
        }
      ],
      "stateMutability": "view",
      "type": "function"
    },
    {
      "inputs": [],
      "name": "harvest",
      "outputs": [],
      "stateMutability": "nonpayable",
      "type": "function"
    },
    {
      "inputs": [],
      "name": "owner",
      "outputs": [
        {
          "internalType": "address",
          "name": "",
          "type": "address"
        }
      ],
      "stateMutability": "view",
      "type": "function"
    },
    {
      "inputs": [],
      "name": "renounceOwnership",
      "outputs": [],
      "stateMutability": "nonpayable",
      "type": "function"
    },
    {
      "inputs": [],
      "name": "rewardFund",
      "outputs": [
        {
          "internalType": "uint256",
          "name": "",
          "type": "uint256"
        }
      ],
      "stateMutability": "view",
      "type": "function"
    },
    {
      "inputs": [],
      "name": "rewardPerTokenStored",
      "outputs": [
        {
          "internalType": "uint256",
          "name": "",
          "type": "uint256"
        }
      ],
      "stateMutability": "view",
      "type": "function"
    },
    {
      "inputs": [
        {
          "internalType": "address",
          "name": "",
          "type": "address"
        }
      ],
      "name": "rewards",
      "outputs": [
        {
          "internalType": "uint256",
          "name": "",
          "type": "uint256"
        }
      ],
      "stateMutability": "view",
      "type": "function"
    },
    {
      "inputs": [
        {
          "internalType": "uint256",
          "name": "amount",
          "type": "uint256"
        }
      ],
      "name": "stake",
      "outputs": [],
      "stateMutability": "nonpayable",
      "type": "function"
    },
    {
      "inputs": [],
      "name": "stakingToken",
      "outputs": [
        {
          "internalType": "contract MyTokenV2",
          "name": "",
          "type": "address"
        }
      ],
      "stateMutability": "view",
      "type": "function"
    },
    {
      "inputs": [],
      "name": "totalStaked",
      "outputs": [
        {
          "internalType": "uint256",
          "name": "",
          "type": "uint256"
        }
      ],
      "stateMutability": "view",
      "type": "function"
    },
    {
      "inputs": [
        {
          "internalType": "address",
          "name": "newOwner",
          "type": "address"
        }
      ],
      "name": "transferOwnership",
      "outputs": [],
      "stateMutability": "nonpayable",
      "type": "function"
    },
    {
      "inputs": [
        {
          "internalType": "uint256",
          "name": "amount",
          "type": "uint256"
        }
      ],
      "name": "unstake",
      "outputs": [],
      "stateMutability": "nonpayable",
      "type": "function"
    },
    {
      "inputs": [
        {
          "internalType": "address",
          "name": "",
          "type": "address"
        }
      ],
      "name": "userRewardPerTokenPaid",
      "outputs": [
        {
          "internalType": "uint256",
          "name": "",
          "type": "uint256"
        }
      ],
      "stateMutability": "view",
      "type": "function"
    }
  ],
  "bytecode": "0x608060405234801561001057600080fd5b50604051611cb1380380611cb1833981810160405281019061003291906101af565b6100413361008860201b60201c565b80600160006101000a81548173ffffffffffffffffffffffffffffffffffffffff021916908373ffffffffffffffffffffffffffffffffffffffff160217905550506101dc565b60008060009054906101000a900473ffffffffffffffffffffffffffffffffffffffff169050816000806101000a81548173ffffffffffffffffffffffffffffffffffffffff021916908373ffffffffffffffffffffffffffffffffffffffff1602179055508173ffffffffffffffffffffffffffffffffffffffff168173ffffffffffffffffffffffffffffffffffffffff167f8be0079c531659141344cd1fd0a4f28419497f9722a3daafe3b4186f6b6457e060405160405180910390a35050565b600080fd5b600073ffffffffffffffffffffffffffffffffffffffff82169050919050565b600061017c82610151565b9050919050565b61018c81610171565b811461019757600080fd5b50565b6000815190506101a981610183565b92915050565b6000602082840312156101c5576101c461014c565b5b60006101d38482850161019a565b91505092915050565b611ac6806101eb6000396000f3fe608060405234801561001057600080fd5b50600436106100f45760003560e01c8063817b1cd211610097578063a694fc3a11610066578063a694fc3a1461025f578063df136d651461027b578063efe2226614610299578063f2fde38b146102b7576100f4565b8063817b1cd2146101d75780638b876347146101f55780638da5cb5b1461022557806391c05b0b14610243576100f4565b80632e17de78116100d35780632e17de78146101895780634641257d146101a5578063715018a6146101af57806372f702f3146101b9576100f4565b80628cc262146100f95780630700037d1461012957806327e235e314610159575b600080fd5b610113600480360381019061010e91906111d1565b6102d3565b6040516101209190611217565b60405180910390f35b610143600480360381019061013e91906111d1565b6103e1565b6040516101509190611217565b60405180910390f35b610173600480360381019061016e91906111d1565b6103f9565b6040516101809190611217565b60405180910390f35b6101a3600480360381019061019e919061125e565b610411565b005b6101ad61067e565b005b6101b76108e1565b005b6101c161097b565b6040516101ce91906112ea565b60405180910390f35b6101df6109a1565b6040516101ec9190611217565b60405180910390f35b61020f600480360381019061020a91906111d1565b6109a7565b60405161021c9190611217565b60405180910390f35b61022d6109bf565b60405161023a9190611314565b60405180910390f35b61025d6004803603810190610258919061125e565b6109e8565b005b6102796004803603810190610274919061125e565b610cda565b005b610283610ec7565b6040516102909190611217565b60405180910390f35b6102a1610ecd565b6040516102ae9190611217565b60405180910390f35b6102d160048036038101906102cc91906111d1565b610ed7565b005b600080600660008473ffffffffffffffffffffffffffffffffffffffff1673ffffffffffffffffffffffffffffffffffffffff168152602001908152602001600020549050600081600554610328919061135e565b90506000670de0b6b3a764000082600360008873ffffffffffffffffffffffffffffffffffffffff1673ffffffffffffffffffffffffffffffffffffffff168152602001908152602001600020546103809190611392565b61038a9190611403565b9050600760008673ffffffffffffffffffffffffffffffffffffffff1673ffffffffffffffffffffffffffffffffffffffff16815260200190815260200160002054816103d79190611434565b9350505050919050565b60076020528060005260406000206000915090505481565b60036020528060005260406000206000915090505481565b61041a33610fe0565b6000811161045d576040517f08c379a0000000000000000000000000000000000000000000000000000000008152600401610454906114c5565b60405180910390fd5b80600360003373ffffffffffffffffffffffffffffffffffffffff1673ffffffffffffffffffffffffffffffffffffffff1681526020019081526020016000205410156104df576040517f08c379a00000000000000000000000000000000000000000000000000000000081526004016104d690611531565b60405180910390fd5b80600360003373ffffffffffffffffffffffffffffffffffffffff1673ffffffffffffffffffffffffffffffffffffffff168152602001908152602001600020600082825461052e919061135e565b925050819055508060026000828254610547919061135e565b92505081905550600160009054906101000a900473ffffffffffffffffffffffffffffffffffffffff1673ffffffffffffffffffffffffffffffffffffffff1663a9059cbb33836040518363ffffffff1660e01b81526004016105ab929190611551565b6020604051808303816000875af11580156105ca573d6000803e3d6000fd5b505050506040513d601f19601f820116820180604052508101906105ee91906115b2565b61062d576040517f08c379a00000000000000000000000000000000000000000000000000000000081526004016106249061162b565b60405180910390fd5b3373ffffffffffffffffffffffffffffffffffffffff167f0f5bb82176feb1b5e747e28471aa92156a04d9f3ab9f45f28e2d704232b93f75826040516106739190611217565b60405180910390a250565b61068733610fe0565b6000600760003373ffffffffffffffffffffffffffffffffffffffff1673ffffffffffffffffffffffffffffffffffffffff1681526020019081526020016000205490506000811161070e576040517f08c379a000000000000000000000000000000000000000000000000000000000815260040161070590611697565b60405180910390fd5b806004541015610753576040517f08c379a000000000000000000000000000000000000000000000000000000000815260040161074a90611703565b60405180910390fd5b6000600760003373ffffffffffffffffffffffffffffffffffffffff1673ffffffffffffffffffffffffffffffffffffffff1681526020019081526020016000208190555080600460008282546107aa919061135e565b92505081905550600160009054906101000a900473ffffffffffffffffffffffffffffffffffffffff1673ffffffffffffffffffffffffffffffffffffffff1663a9059cbb33836040518363ffffffff1660e01b815260040161080e929190611551565b6020604051808303816000875af115801561082d573d6000803e3d6000fd5b505050506040513d601f19601f8201168201806040525081019061085191906115b2565b610890576040517f08c379a00000000000000000000000000000000000000000000000000000000081526004016108879061162b565b60405180910390fd5b3373ffffffffffffffffffffffffffffffffffffffff167fe2403640ba68fed3a2f88b7557551d1993f84b99bb10ff833f0cf8db0c5e0486826040516108d69190611217565b60405180910390a250565b60008054906101000a900473ffffffffffffffffffffffffffffffffffffffff1673ffffffffffffffffffffffffffffffffffffffff163373ffffffffffffffffffffffffffffffffffffffff161461096f576040517f08c379a00000000000000000000000000000000000000000000000000000000081526004016109669061176f565b60405180910390fd5b61097960006110aa565b565b600160009054906101000a900473ffffffffffffffffffffffffffffffffffffffff1681565b60025481565b60066020528060005260406000206000915090505481565b60008060009054906101000a900473ffffffffffffffffffffffffffffffffffffffff16905090565b60008054906101000a900473ffffffffffffffffffffffffffffffffffffffff1673ffffffffffffffffffffffffffffffffffffffff163373ffffffffffffffffffffffffffffffffffffffff1614610a76576040517f08c379a0000000000000000000000000000000000000000000000000000000008152600401610a6d9061176f565b60405180910390fd5b60008111610ab9576040517f08c379a0000000000000000000000000000000000000000000000000000000008152600401610ab0906117db565b60405180910390fd5b600060025411610afe576040517f08c379a0000000000000000000000000000000000000000000000000000000008152600401610af590611847565b60405180910390fd5b6000600160009054906101000a900473ffffffffffffffffffffffffffffffffffffffff1673ffffffffffffffffffffffffffffffffffffffff166370a08231306040518263ffffffff1660e01b8152600401610b5b9190611314565b602060405180830381865afa158015610b78573d6000803e3d6000fd5b505050506040513d601f19601f82011682018060405250810190610b9c919061187c565b9050600454600254610bae9190611434565b811015610bf0576040517f08c379a0000000000000000000000000000000000000000000000000000000008152600401610be7906118f5565b60405180910390fd5b81600454600254610c019190611434565b610c0b9190611434565b811015610c4d576040517f08c379a0000000000000000000000000000000000000000000000000000000008152600401610c4490611961565b60405180910390fd5b8160046000828254610c5f9190611434565b92505081905550600254670de0b6b3a764000083610c7d9190611392565b610c879190611403565b60056000828254610c989190611434565b925050819055507fde88a922e0d3b88b24e9623efeb464919c6bf9f66857a65e2bfcf2ce87a9433d82604051610cce9190611217565b60405180910390a15050565b610ce333610fe0565b60008111610d26576040517f08c379a0000000000000000000000000000000000000000000000000000000008152600401610d1d906119cd565b60405180910390fd5b600160009054906101000a900473ffffffffffffffffffffffffffffffffffffffff1673ffffffffffffffffffffffffffffffffffffffff166323b872dd3330846040518463ffffffff1660e01b8152600401610d85939291906119ed565b6020604051808303816000875af1158015610da4573d6000803e3d6000fd5b505050506040513d601f19601f82011682018060405250810190610dc891906115b2565b610e07576040517f08c379a0000000000000000000000000000000000000000000000000000000008152600401610dfe9061162b565b60405180910390fd5b80600360003373ffffffffffffffffffffffffffffffffffffffff1673ffffffffffffffffffffffffffffffffffffffff1681526020019081526020016000206000828254610e569190611434565b925050819055508060026000828254610e6f9190611434565b925050819055503373ffffffffffffffffffffffffffffffffffffffff167f9e71bc8eea02a63969f509818f2dafb9254532904319f9dbda79b67bd34a5f3d82604051610ebc9190611217565b60405180910390a250565b60055481565b6000600454905090565b60008054906101000a900473ffffffffffffffffffffffffffffffffffffffff1673ffffffffffffffffffffffffffffffffffffffff163373ffffffffffffffffffffffffffffffffffffffff1614610f65576040517f08c379a0000000000000000000000000000000000000000000000000000000008152600401610f5c9061176f565b60405180910390fd5b600073ffffffffffffffffffffffffffffffffffffffff168173ffffffffffffffffffffffffffffffffffffffff1603610fd4576040517f08c379a0000000000000000000000000000000000000000000000000000000008152600401610fcb90611a70565b60405180910390fd5b610fdd816110aa565b50565b600073ffffffffffffffffffffffffffffffffffffffff168173ffffffffffffffffffffffffffffffffffffffff16146110a75761101d816102d3565b600760008373ffffffffffffffffffffffffffffffffffffffff1673ffffffffffffffffffffffffffffffffffffffff16815260200190815260200160002081905550600554600660008373ffffffffffffffffffffffffffffffffffffffff1673ffffffffffffffffffffffffffffffffffffffff168152602001908152602001600020819055505b50565b60008060009054906101000a900473ffffffffffffffffffffffffffffffffffffffff169050816000806101000a81548173ffffffffffffffffffffffffffffffffffffffff021916908373ffffffffffffffffffffffffffffffffffffffff1602179055508173ffffffffffffffffffffffffffffffffffffffff168173ffffffffffffffffffffffffffffffffffffffff167f8be0079c531659141344cd1fd0a4f28419497f9722a3daafe3b4186f6b6457e060405160405180910390a35050565b600080fd5b600073ffffffffffffffffffffffffffffffffffffffff82169050919050565b600061119e82611173565b9050919050565b6111ae81611193565b81146111b957600080fd5b50565b6000813590506111cb816111a5565b92915050565b6000602082840312156111e7576111e661116e565b5b60006111f5848285016111bc565b91505092915050565b6000819050919050565b611211816111fe565b82525050565b600060208201905061122c6000830184611208565b92915050565b61123b816111fe565b811461124657600080fd5b50565b60008135905061125881611232565b92915050565b6000602082840312156112745761127361116e565b5b600061128284828501611249565b91505092915050565b6000819050919050565b60006112b06112ab6112a684611173565b61128b565b611173565b9050919050565b60006112c282611295565b9050919050565b60006112d4826112b7565b9050919050565b6112e4816112c9565b82525050565b60006020820190506112ff60008301846112db565b92915050565b61130e81611193565b82525050565b60006020820190506113296000830184611305565b92915050565b7f4e487b7100000000000000000000000000000000000000000000000000000000600052601160045260246000fd5b6000611369826111fe565b9150611374836111fe565b925082820390508181111561138c5761138b61132f565b5b92915050565b600061139d826111fe565b91506113a8836111fe565b92508282026113b6816111fe565b915082820484148315176113cd576113cc61132f565b5b5092915050565b7f4e487b7100000000000000000000000000000000000000000000000000000000600052601260045260246000fd5b600061140e826111fe565b9150611419836111fe565b925082611429576114286113d4565b5b828204905092915050565b600061143f826111fe565b915061144a836111fe565b92508282019050808211156114625761146161132f565b5b92915050565b600082825260208201905092915050565b7f43616e6e6f7420756e7374616b65203000000000000000000000000000000000600082015250565b60006114af601083611468565b91506114ba82611479565b602082019050919050565b600060208201905081810360008301526114de816114a2565b9050919050565b7f496e73756666696369656e74207374616b65642062616c616e63650000000000600082015250565b600061151b601b83611468565b9150611526826114e5565b602082019050919050565b6000602082019050818103600083015261154a8161150e565b9050919050565b60006040820190506115666000830185611305565b6115736020830184611208565b9392505050565b60008115159050919050565b61158f8161157a565b811461159a57600080fd5b50565b6000815190506115ac81611586565b92915050565b6000602082840312156115c8576115c761116e565b5b60006115d68482850161159d565b91505092915050565b7f5472616e73666572206661696c65640000000000000000000000000000000000600082015250565b6000611615600f83611468565b9150611620826115df565b602082019050919050565b6000602082019050818103600083015261164481611608565b9050919050565b7f4e6f207265776172647320746f20686172766573740000000000000000000000600082015250565b6000611681601583611468565b915061168c8261164b565b602082019050919050565b600060208201905081810360008301526116b081611674565b9050919050565b7f496e73756666696369656e74207265776172642066756e640000000000000000600082015250565b60006116ed601883611468565b91506116f8826116b7565b602082019050919050565b6000602082019050818103600083015261171c816116e0565b9050919050565b7f4e6f74206f776e65720000000000000000000000000000000000000000000000600082015250565b6000611759600983611468565b915061176482611723565b602082019050919050565b600060208201905081810360008301526117888161174c565b9050919050565b7f526577617264206d7573742062652067726561746572207468616e2030000000600082015250565b60006117c5601d83611468565b91506117d08261178f565b602082019050919050565b600060208201905081810360008301526117f4816117b8565b9050919050565b7f4e6f207374616b656420746f6b656e7300000000000000000000000000000000600082015250565b6000611831601083611468565b915061183c826117fb565b602082019050919050565b6000602082019050818103600083015261186081611824565b9050919050565b60008151905061187681611232565b92915050565b6000602082840312156118925761189161116e565b5b60006118a084828501611867565b91505092915050565b7f42616420706f6f6c2062616c616e636500000000000000000000000000000000600082015250565b60006118df601083611468565b91506118ea826118a9565b602082019050919050565b6000602082019050818103600083015261190e816118d2565b9050919050565b7f496e73756666696369656e74207265776172642062616c616e63650000000000600082015250565b600061194b601b83611468565b915061195682611915565b602082019050919050565b6000602082019050818103600083015261197a8161193e565b9050919050565b7f43616e6e6f74207374616b652030000000000000000000000000000000000000600082015250565b60006119b7600e83611468565b91506119c282611981565b602082019050919050565b600060208201905081810360008301526119e6816119aa565b9050919050565b6000606082019050611a026000830186611305565b611a0f6020830185611305565b611a1c6040830184611208565b949350505050565b7f4e6577206f776e6572206973207a65726f206164647265737300000000000000600082015250565b6000611a5a601983611468565b9150611a6582611a24565b602082019050919050565b60006020820190508181036000830152611a8981611a4d565b905091905056fea26469706673582212207d592d17af471af45634b7ed926d7582beb8ad95b7cfa9f84a1be8aba6d50d6064736f6c634300081c0033",
  "linkReferences": {},
  "deployedLinkReferences": {}
}