{
  "_format": "hh-sol-artifact-1",
  "contractName": "StakingPool",
  "sourceName": "contracts/StakingPool.sol",
  "abi": [
    {
      "inputs": [
        {
          "internalType": "address",
          "name": "tokenAddress",
          "type": "address"
        }
      ],
      "stateMutability": "nonpayable",
      "type": "constructor"
    },
    {
      "anonymous": false,
      "inputs": [
        {
          "indexed": true,
          "internalType": "address",
          "name": "previousOwner",
          "type": "address"
        },
        {
          "indexed": true,
          "internalType": "address",
          "name": "newOwner",
          "type": "address"
        }
      ],
      "name": "OwnershipTransferred",
      "type": "event"
    },
    {
      "anonymous": false,
      "inputs": [
        {
          "indexed": false,
          "internalType": "uint256",
          "name": "amount",
          "type": "uint256"
        }
      ],
      "name": "RewardAdded",
      "type": "event"
    },
    {
      "anonymous": false,
      "inputs": [
        {
          "indexed": true,
          "internalType": "address",
          "name": "user",
          "type": "address"
        },
        {
          "indexed": false,
          "internalType": "uint256",
          "name": "reward",
          "type": "uint256"
        }
      ],
      "name": "RewardPaid",
      "type": "event"
    },
    {
      "anonymous": false,
      "inputs": [
        {
          "indexed": true,
          "internalType": "address",
          "name": "user",
          "type": "address"
        },
        {
          "indexed": false,
          "internalType": "uint256",
          "name": "amount",
          "type": "uint256"
        }
      ],
      "name": "Staked",
      "type": "event"
    },
    {
      "anonymous": false,
      "inputs": [
        {
          "indexed": true,
          "internalType": "address",
          "name": "user",
          "type": "address"
        },
        {
          "indexed": false,
          "internalType": "uint256",
          "name": "amount",
          "type": "uint256"
        }
      ],
      "name": "Unstaked",
      "type": "event"
    },
    {
      "inputs": [
        {
          "internalType": "address",
          "name": "",
          "type": "address"
        }
      ],
      "name": "balances",
      "outputs": [
        {
          "internalType": "uint256",
          "name": "",
          "type": "uint256"
        }
      ],
      "stateMutability": "view",
      "type": "function"
    },
    {
      "inputs": [
        {
          "internalType": "uint256",
          "name": "rewardAmount",
          "type": "uint256"
        }
      ],
      "name": "distribute",
      "outputs": [],
      "stateMutability": "nonpayable",
      "type": "function"
    },
    {
      "inputs": [
        {
          "internalType": "address",
          "name": "account",
          "type": "address"
        }
      ],
      "name": "earned",
      "outputs": [
        {
          "internalType": "uint256",
          "name": "",
          "type": "uint256"
        }
      ],
      "stateMutability": "view",
      "type": "function"
    },
    {
      "inputs": [],
      "name": "harvest",
      "outputs": [],
      "stateMutability": "nonpayable",
      "type": "function"
    },
    {
      "inputs": [],
      "name": "owner",
      "outputs": [
        {
          "internalType": "address",
          "name": "",
          "type": "address"
        }
      ],
      "stateMutability": "view",
      "type": "function"
    },
    {
      "inputs": [],
      "name": "renounceOwnership",
      "outputs": [],
      "stateMutability": "nonpayable",
      "type": "function"
    },
    {
      "inputs": [],
      "name": "rewardPerTokenStored",
      "outputs": [
        {
          "internalType": "uint256",
          "name": "",
          "type": "uint256"
        }
      ],
      "stateMutability": "view",
      "type": "function"
    },
    {
      "inputs": [
        {
          "internalType": "address",
          "name": "",
          "type": "address"
        }
      ],
      "name": "rewards",
      "outputs": [
        {
          "internalType": "uint256",
          "name": "",
          "type": "uint256"
        }
      ],
      "stateMutability": "view",
      "type": "function"
    },
    {
      "inputs": [
        {
          "internalType": "uint256",
          "name": "amount",
          "type": "uint256"
        }
      ],
      "name": "stake",
      "outputs": [],
      "stateMutability": "nonpayable",
      "type": "function"
    },
    {
      "inputs": [],
      "name": "stakingToken",
      "outputs": [
        {
          "internalType": "contract MyTokenV2",
          "name": "",
          "type": "address"
        }
      ],
      "stateMutability": "view",
      "type": "function"
    },
    {
      "inputs": [],
      "name": "totalStaked",
      "outputs": [
        {
          "internalType": "uint256",
          "name": "",
          "type": "uint256"
        }
      ],
      "stateMutability": "view",
      "type": "function"
    },
    {
      "inputs": [
        {
          "internalType": "address",
          "name": "newOwner",
          "type": "address"
        }
      ],
      "name": "transferOwnership",
      "outputs": [],
      "stateMutability": "nonpayable",
      "type": "function"
    },
    {
      "inputs": [
        {
          "internalType": "uint256",
          "name": "amount",
          "type": "uint256"
        }
      ],
      "name": "unstake",
      "outputs": [],
      "stateMutability": "nonpayable",
      "type": "function"
    },
    {
      "inputs": [
        {
          "internalType": "address",
          "name": "",
          "type": "address"
        }
      ],
      "name": "userRewardPerTokenPaid",
      "outputs": [
        {
          "internalType": "uint256",
          "name": "",
          "type": "uint256"
        }
      ],
      "stateMutability": "view",
      "type": "function"
    }
  ],
  "bytecode": "0x608060405234801561001057600080fd5b50604051611a12380380611a12833981810160405281019061003291906101af565b6100413361008860201b60201c565b80600160006101000a81548173ffffffffffffffffffffffffffffffffffffffff021916908373ffffffffffffffffffffffffffffffffffffffff160217905550506101dc565b60008060009054906101000a900473ffffffffffffffffffffffffffffffffffffffff169050816000806101000a81548173ffffffffffffffffffffffffffffffffffffffff021916908373ffffffffffffffffffffffffffffffffffffffff1602179055508173ffffffffffffffffffffffffffffffffffffffff168173ffffffffffffffffffffffffffffffffffffffff167f8be0079c531659141344cd1fd0a4f28419497f9722a3daafe3b4186f6b6457e060405160405180910390a35050565b600080fd5b600073ffffffffffffffffffffffffffffffffffffffff82169050919050565b600061017c82610151565b9050919050565b61018c81610171565b811461019757600080fd5b50565b6000815190506101a981610183565b92915050565b6000602082840312156101c5576101c461014c565b5b60006101d38482850161019a565b91505092915050565b611827806101eb6000396000f3fe608060405234801561001057600080fd5b50600436106100e95760003560e01c8063817b1cd21161008c57806391c05b0b1161006657806391c05b0b14610238578063a694fc3a14610254578063df136d6514610270578063f2fde38b1461028e576100e9565b8063817b1cd2146101cc5780638b876347146101ea5780638da5cb5b1461021a576100e9565b80632e17de78116100c85780632e17de781461017e5780634641257d1461019a578063715018a6146101a457806372f702f3146101ae576100e9565b80628cc262146100ee5780630700037d1461011e57806327e235e31461014e575b600080fd5b610108600480360381019061010391906110b8565b6102aa565b60405161011591906110fe565b60405180910390f35b610138600480360381019061013391906110b8565b6103b8565b60405161014591906110fe565b60405180910390f35b610168600480360381019061016391906110b8565b6103d0565b60405161017591906110fe565b60405180910390f35b61019860048036038101906101939190611145565b6103e8565b005b6101a2610655565b005b6101ac61085a565b005b6101b66108f4565b6040516101c391906111d1565b60405180910390f35b6101d461091a565b6040516101e191906110fe565b60405180910390f35b61020460048036038101906101ff91906110b8565b610920565b60405161021191906110fe565b60405180910390f35b610222610938565b60405161022f91906111fb565b60405180910390f35b610252600480360381019061024d9190611145565b610961565b005b61026e60048036038101906102699190611145565b610bcb565b005b610278610db8565b60405161028591906110fe565b60405180910390f35b6102a860048036038101906102a391906110b8565b610dbe565b005b600080600560008473ffffffffffffffffffffffffffffffffffffffff1673ffffffffffffffffffffffffffffffffffffffff1681526020019081526020016000205490506000816004546102ff9190611245565b90506000670de0b6b3a764000082600360008873ffffffffffffffffffffffffffffffffffffffff1673ffffffffffffffffffffffffffffffffffffffff168152602001908152602001600020546103579190611279565b61036191906112ea565b9050600660008673ffffffffffffffffffffffffffffffffffffffff1673ffffffffffffffffffffffffffffffffffffffff16815260200190815260200160002054816103ae919061131b565b9350505050919050565b60066020528060005260406000206000915090505481565b60036020528060005260406000206000915090505481565b6103f133610ec7565b60008111610434576040517f08c379a000000000000000000000000000000000000000000000000000000000815260040161042b906113ac565b60405180910390fd5b80600360003373ffffffffffffffffffffffffffffffffffffffff1673ffffffffffffffffffffffffffffffffffffffff1681526020019081526020016000205410156104b6576040517f08c379a00000000000000000000000000000000000000000000000000000000081526004016104ad90611418565b60405180910390fd5b80600360003373ffffffffffffffffffffffffffffffffffffffff1673ffffffffffffffffffffffffffffffffffffffff16815260200190815260200160002060008282546105059190611245565b92505081905550806002600082825461051e9190611245565b92505081905550600160009054906101000a900473ffffffffffffffffffffffffffffffffffffffff1673ffffffffffffffffffffffffffffffffffffffff1663a9059cbb33836040518363ffffffff1660e01b8152600401610582929190611438565b6020604051808303816000875af11580156105a1573d6000803e3d6000fd5b505050506040513d601f19601f820116820180604052508101906105c59190611499565b610604576040517f08c379a00000000000000000000000000000000000000000000000000000000081526004016105fb90611512565b60405180910390fd5b3373ffffffffffffffffffffffffffffffffffffffff167f0f5bb82176feb1b5e747e28471aa92156a04d9f3ab9f45f28e2d704232b93f758260405161064a91906110fe565b60405180910390a250565b61065e33610ec7565b6000600660003373ffffffffffffffffffffffffffffffffffffffff1673ffffffffffffffffffffffffffffffffffffffff168152602001908152602001600020549050600081116106e5576040517f08c379a00000000000000000000000000000000000000000000000000000000081526004016106dc9061157e565b60405180910390fd5b6000600660003373ffffffffffffffffffffffffffffffffffffffff1673ffffffffffffffffffffffffffffffffffffffff16815260200190815260200160002081905550600160009054906101000a900473ffffffffffffffffffffffffffffffffffffffff1673ffffffffffffffffffffffffffffffffffffffff1663a9059cbb33836040518363ffffffff1660e01b8152600401610787929190611438565b6020604051808303816000875af11580156107a6573d6000803e3d6000fd5b505050506040513d601f19601f820116820180604052508101906107ca9190611499565b610809576040517f08c379a000000000000000000000000000000000000000000000000000000000815260040161080090611512565b60405180910390fd5b3373ffffffffffffffffffffffffffffffffffffffff167fe2403640ba68fed3a2f88b7557551d1993f84b99bb10ff833f0cf8db0c5e04868260405161084f91906110fe565b60405180910390a250565b60008054906101000a900473ffffffffffffffffffffffffffffffffffffffff1673ffffffffffffffffffffffffffffffffffffffff163373ffffffffffffffffffffffffffffffffffffffff16146108e8576040517f08c379a00000000000000000000000000000000000000000000000000000000081526004016108df906115ea565b60405180910390fd5b6108f26000610f91565b565b600160009054906101000a900473ffffffffffffffffffffffffffffffffffffffff1681565b60025481565b60056020528060005260406000206000915090505481565b60008060009054906101000a900473ffffffffffffffffffffffffffffffffffffffff16905090565b60008054906101000a900473ffffffffffffffffffffffffffffffffffffffff1673ffffffffffffffffffffffffffffffffffffffff163373ffffffffffffffffffffffffffffffffffffffff16146109ef576040517f08c379a00000000000000000000000000000000000000000000000000000000081526004016109e6906115ea565b60405180910390fd5b60008111610a32576040517f08c379a0000000000000000000000000000000000000000000000000000000008152600401610a2990611656565b60405180910390fd5b600060025411610a77576040517f08c379a0000000000000000000000000000000000000000000000000000000008152600401610a6e906116c2565b60405180910390fd5b600160009054906101000a900473ffffffffffffffffffffffffffffffffffffffff1673ffffffffffffffffffffffffffffffffffffffff166323b872dd3330846040518463ffffffff1660e01b8152600401610ad6939291906116e2565b6020604051808303816000875af1158015610af5573d6000803e3d6000fd5b505050506040513d601f19601f82011682018060405250810190610b199190611499565b610b58576040517f08c379a0000000000000000000000000000000000000000000000000000000008152600401610b4f90611512565b60405180910390fd5b600254670de0b6b3a764000082610b6f9190611279565b610b7991906112ea565b60046000828254610b8a919061131b565b925050819055507fde88a922e0d3b88b24e9623efeb464919c6bf9f66857a65e2bfcf2ce87a9433d81604051610bc091906110fe565b60405180910390a150565b610bd433610ec7565b60008111610c17576040517f08c379a0000000000000000000000000000000000000000000000000000000008152600401610c0e90611765565b60405180910390fd5b600160009054906101000a900473ffffffffffffffffffffffffffffffffffffffff1673ffffffffffffffffffffffffffffffffffffffff166323b872dd3330846040518463ffffffff1660e01b8152600401610c76939291906116e2565b6020604051808303816000875af1158015610c95573d6000803e3d6000fd5b505050506040513d601f19601f82011682018060405250810190610cb99190611499565b610cf8576040517f08c379a0000000000000000000000000000000000000000000000000000000008152600401610cef90611512565b60405180910390fd5b80600360003373ffffffffffffffffffffffffffffffffffffffff1673ffffffffffffffffffffffffffffffffffffffff1681526020019081526020016000206000828254610d47919061131b565b925050819055508060026000828254610d60919061131b565b925050819055503373ffffffffffffffffffffffffffffffffffffffff167f9e71bc8eea02a63969f509818f2dafb9254532904319f9dbda79b67bd34a5f3d82604051610dad91906110fe565b60405180910390a250565b60045481565b60008054906101000a900473ffffffffffffffffffffffffffffffffffffffff1673ffffffffffffffffffffffffffffffffffffffff163373ffffffffffffffffffffffffffffffffffffffff1614610e4c576040517f08c379a0000000000000000000000000000000000000000000000000000000008152600401610e43906115ea565b60405180910390fd5b600073ffffffffffffffffffffffffffffffffffffffff168173ffffffffffffffffffffffffffffffffffffffff1603610ebb576040517f08c379a0000000000000000000000000000000000000000000000000000000008152600401610eb2906117d1565b60405180910390fd5b610ec481610f91565b50565b600073ffffffffffffffffffffffffffffffffffffffff168173ffffffffffffffffffffffffffffffffffffffff1614610f8e57610f04816102aa565b600660008373ffffffffffffffffffffffffffffffffffffffff1673ffffffffffffffffffffffffffffffffffffffff16815260200190815260200160002081905550600454600560008373ffffffffffffffffffffffffffffffffffffffff1673ffffffffffffffffffffffffffffffffffffffff168152602001908152602001600020819055505b50565b60008060009054906101000a900473ffffffffffffffffffffffffffffffffffffffff169050816000806101000a81548173ffffffffffffffffffffffffffffffffffffffff021916908373ffffffffffffffffffffffffffffffffffffffff1602179055508173ffffffffffffffffffffffffffffffffffffffff168173ffffffffffffffffffffffffffffffffffffffff167f8be0079c531659141344cd1fd0a4f28419497f9722a3daafe3b4186f6b6457e060405160405180910390a35050565b600080fd5b600073ffffffffffffffffffffffffffffffffffffffff82169050919050565b60006110858261105a565b9050919050565b6110958161107a565b81146110a057600080fd5b50565b6000813590506110b28161108c565b92915050565b6000602082840312156110ce576110cd611055565b5b60006110dc848285016110a3565b91505092915050565b6000819050919050565b6110f8816110e5565b82525050565b600060208201905061111360008301846110ef565b92915050565b611122816110e5565b811461112d57600080fd5b50565b60008135905061113f81611119565b92915050565b60006020828403121561115b5761115a611055565b5b600061116984828501611130565b91505092915050565b6000819050919050565b600061119761119261118d8461105a565b611172565b61105a565b9050919050565b60006111a98261117c565b9050919050565b60006111bb8261119e565b9050919050565b6111cb816111b0565b82525050565b60006020820190506111e660008301846111c2565b92915050565b6111f58161107a565b82525050565b600060208201905061121060008301846111ec565b92915050565b7f4e487b7100000000000000000000000000000000000000000000000000000000600052601160045260246000fd5b6000611250826110e5565b915061125b836110e5565b925082820390508181111561127357611272611216565b5b92915050565b6000611284826110e5565b915061128f836110e5565b925082820261129d816110e5565b915082820484148315176112b4576112b3611216565b5b5092915050565b7f4e487b7100000000000000000000000000000000000000000000000000000000600052601260045260246000fd5b60006112f5826110e5565b9150611300836110e5565b9250826113105761130f6112bb565b5b828204905092915050565b6000611326826110e5565b9150611331836110e5565b925082820190508082111561134957611348611216565b5b92915050565b600082825260208201905092915050565b7f43616e6e6f7420756e7374616b65203000000000000000000000000000000000600082015250565b600061139660108361134f565b91506113a182611360565b602082019050919050565b600060208201905081810360008301526113c581611389565b9050919050565b7f496e73756666696369656e74207374616b65642062616c616e63650000000000600082015250565b6000611402601b8361134f565b915061140d826113cc565b602082019050919050565b60006020820190508181036000830152611431816113f5565b9050919050565b600060408201905061144d60008301856111ec565b61145a60208301846110ef565b9392505050565b60008115159050919050565b61147681611461565b811461148157600080fd5b50565b6000815190506114938161146d565b92915050565b6000602082840312156114af576114ae611055565b5b60006114bd84828501611484565b91505092915050565b7f5472616e73666572206661696c65640000000000000000000000000000000000600082015250565b60006114fc600f8361134f565b9150611507826114c6565b602082019050919050565b6000602082019050818103600083015261152b816114ef565b9050919050565b7f4e6f207265776172647320746f20686172766573740000000000000000000000600082015250565b600061156860158361134f565b915061157382611532565b602082019050919050565b600060208201905081810360008301526115978161155b565b9050919050565b7f4e6f74206f776e65720000000000000000000000000000000000000000000000600082015250565b60006115d460098361134f565b91506115df8261159e565b602082019050919050565b60006020820190508181036000830152611603816115c7565b9050919050565b7f526577617264206d7573742062652067726561746572207468616e2030000000600082015250565b6000611640601d8361134f565b915061164b8261160a565b602082019050919050565b6000602082019050818103600083015261166f81611633565b9050919050565b7f4e6f207374616b656420746f6b656e7300000000000000000000000000000000600082015250565b60006116ac60108361134f565b91506116b782611676565b602082019050919050565b600060208201905081810360008301526116db8161169f565b9050919050565b60006060820190506116f760008301866111ec565b61170460208301856111ec565b61171160408301846110ef565b949350505050565b7f43616e6e6f74207374616b652030000000000000000000000000000000000000600082015250565b600061174f600e8361134f565b915061175a82611719565b602082019050919050565b6000602082019050818103600083015261177e81611742565b9050919050565b7f4e6577206f776e6572206973207a65726f206164647265737300000000000000600082015250565b60006117bb60198361134f565b91506117c682611785565b602082019050919050565b600060208201905081810360008301526117ea816117ae565b905091905056fea264697066735822122065f7477a105ee5c1507382252e1c8409428eab780d596e9a4d4b8f5bf492cd1464736f6c634300081c0033",
  "linkReferences": {},
  "deployedLinkReferences": {}
}